:020000041000EA
:1000000000B5324B212058609868022188439860DF
:10001000D860186158612E4B002199600221596106
:100020000121F02299502B49196001219960352056
:1000300000F044F80222904214D00621196600F024
:1000400034F8196E01211966002018661A6600F04E
:100050002CF8196E196E196E052000F02FF8012189
:100060000842F9D1002199601B49196000215960AB
:100070001A491B48016001219960EB211966A021F2
:10008000196600F012F800219960164914480160C1
:100090000121996001BC002800D000471248134993
:1000A000086003C880F30888084703B5996A0420EC
:1000B0000142FBD001200142F8D103BD02B5186610
:1000C0001866FFF7F2FF186E186E02BD00000240BE
:1000D000000000180000070000035F00212200005C
:1000E000F4000018222000A00001001008ED00E03C
:1000F00000000000000000000000000074B24E7A12
:1001000000200420F7010010CB010010CD010010E9
:10011000C9010010C9010010C9010010C901001077
:10012000C9010010C9010010C9010010CF01001061
:10013000C9010010C9010010D1010010D301001045
:10014000C1010010C1010010C1010010C101001067
:10015000C1010010C1010010C1010010C101001057
:10016000C1010010C1010010C1010010C101001047
:10017000C1010010C1010010C1010010C101001037
:10018000C1010010C1010010C1010010C101001027
:10019000C1010010C1010010C1010010C101001017
:1001A000C1010010C1010010C1010010C101001007
:1001B000C1010010C1010010C1010010C1010010F7
:1001C000EFF30580103800BE00BE00BE00BE00BECA
:1001D00000BE00BEF2EB88717C8A00109C8A001081
:1001E0003802001090A31AE71E481F49086006C88D
:1001F00081F3088810471D480068002801D019487D
:10020000F3E70DA40ECC002902D000F012F8F9E7B4
:100210001749184A002000E001C19142FCD116495B
:100220008847164988471649884700BEFDE701C937
:1002300001C29A42FBD370479C8A0010C000002084
:1002400000120020DC9B00100000042000000420AD
:10025000DC9B0010001004200010042000000000AF
:10026000704700000000000008ED00E0000000D032
:1002700000120020CC21002069540010ED03001072
:1002800061540010F8B5C04606480749091A8B109A
:10029000C90FC91810B5491003D0044B002B00D06A
:1002A000984710BD0012002000120020000000003E
:1002B000054B10B5002B03D00449054800E000BFF2
:1002C000FFF7E2FF10BDC0460000000060210020E3
:1002D000AC83001030B58FB02A22002103A803F0B0
:1002E000F1FC6946124A134B12781B781202134331
:1002F0000B8000234B80104B1B680193FA23DB001B
:1003000002930E4B1888421C1A802A2303AA00F07D
:10031000D3FC002801D10FB030BD03AC25182078E4
:10032000013405F081F9AC42F9D105F0DFF9F2E7CB
:10033000C221002030110020501D00203211002069
:1003400030B593B02A22002107A803F0BBFC00239C
:10035000234D0693286803F041FC0022214B02F054
:10036000B4FF07F091FF0190686803F037FC0022AA
:100370001C4B02F0AAFF07F087FF0290E86803F029
:100380002DFC0022174B02F0A0FF07F07DFF039029
:10039000286903F023FC0022124B02F096FF07F0BD
:1003A00073FF6B69049005932B7E01AC23750E4B94
:1003B00021001888421C1A802A2307AA00F03EFD5B
:1003C000002801D113B030BD07AC251820780134C6
:1003D00005F02AF9AC42F9D105F088F9F2E7C046F8
:1003E000DC1C002080842E4132110020F0B5DE4656
:1003F0004E4645465746D44BE0B51900B5B022AA43
:1004000051C951C251C951C209681C33116017AAA0
:1004100043CB43C203CB03C205F07CF99620C00056
:1004200001F048FF22A800F07DFD17A800F00CFFA6
:10043000C64BC74918000F910A9300F0E1FF29ABA2
:100440002A22002118009B4603F03CFCC14BFA21F4
:10045000984642461888C900431C13802A23BE4A86
:1004600000935B4600F048FB002800D0F1E2FFF764
:1004700031FF02F02FF8FA22002352008018594170
:1004800002900391002904DA0123B44C5B420293E9
:10049000039402F01FF80023B14A801859410690D6
:1004A0000791002904DA0123AC4C5B4206930794C0
:1004B00000230593AB4BAC4D0493AC4BAC4E0C936B
:1004C000AC4B0E93AC4B1193AC4B0D93AC4B0893D0
:1004D000AC4B0993AC4B1093AC4B0B93002005F045
:1004E0001DF9346800280BDB0023532C01D8631C52
:1004F00028550020336005F011F934680028F3DA3C
:10050000092C52D9AB1C9A4647462B000021601E8D
:1005100004E001310133814200D1CCE11A78A52AEF
:10052000F7D15A785A2AF4D1002900D06DE1346805
:10053000092C39D9EB889946202B00D96DE10A2383
:100540004B449846A3422FD84A46083253195B7849
:10055000AC5C1B021C434B465046991D00F096FABA
:10056000844200D192E02A220021584603F0AAFBDF
:100570003C88631C3B8001F0ADFF2A2201925A4661
:100580000300009201210122200000F0FDFB002861
:1005900000D049E134687E49023C2200724807F0ED
:1005A000BFFD3460092CB0D8B84601F093FF069A1D
:1005B000079B121A8B41002B00DC80E115A800F08C
:1005C000FDFC002849D001F085FF089B159A1B7897
:1005D000002B00D044E10E9B1C688023141B5B039E
:1005E0009C4200DCEAE16B4BE4180D9B00271C6089
:1005F000109B1A600123089A1370200003F0CCFAB4
:10060000D421890503F089FA3B1C0A9F021C0F992B
:10061000380000F071FF3B7E041C002B00D068E125
:100620000C9B1B78002B11D00A21059802F0E2FBED
:10063000002900D16DE10A9B1B7E002B06D02821EA
:10064000059802F0D7FB002900D1BFE1159B099A5C
:10065000136001F03FFF0B9B1860059B0298039904
:100660000133059301F0C2FD02980399FA22002399
:1006700052008018594102900391002900DB2DE7B8
:100680000123364C5B420293039427E7EC78230066
:10069000103BDBB2122B07D8049A9B00D3589F461D
:1006A0004B46042B00D1AEE02A220021584603F02D
:1006B00009FB3B88994601333B8001F00BFF2A225E
:1006C00001925A460300009202212200484600F09F
:1006D0005BFB002800D0B5E0424633689C1A984581
:1006E00000D35EE751192800220007F019FD58E7F2
:1006F000099B1B680E9A13600123119A1370002343
:100700000D9A1360089A1370FFF7E4FDE4E70023E5
:100710000C9A1370FFF7DEFDDEE74B46002BC3D0CB
:100720002C7A0A9821004B1E9941C9B200F088FE2C
:1007300060426041062340429843083000F00EFEBC
:10074000FFF7FEFDC8E7C046FC830010DC1C00205C
:10075000CC1C00203211002030032620FFFFFF7F39
:1007600040420F00B0830010F81C00203011002020
:100770004C1D0020501D0020C22100208C1C002098
:10078000C1210020C41C0020901C0020C81C002097
:10079000FA1C00200000E0FF4B460B2B84D928698F
:1007A00003F0FAF9B14903F0A4F98146E86803F0CF
:1007B000F3F9AE4903F09DF9041CA86803F0ECF9C5
:1007C000AA4903F096F94B46011C221C0F9800F031
:1007D00047FE81E74B46032B00D865E7A86803F086
:1007E000DBF9A34903F085F9011C0A9800F024FE07
:1007F00072E74B46012B00D856E701230C9A137081
:10080000FFF768FD68E7AB6874E7641A2200280008
:10081000491907F085FC34608AE6023C2200514603
:10082000280007F07DFCBCE65844A8465C4605005D
:100830002078013404F0F8FEAC42F9D1454604F0CA
:1008400055FFA7E65844A9465C46050020780134C8
:1008500004F0EAFEAC42F9D14D4604F047FF3BE715
:100860008021109B49031B68D31A8B4200DC9DE05A
:1008700080495B180D990C681C190C6010990A606E
:100880000B9A1268002A32D0871A90422FD0180093
:1008900003F082F9D421890503F03FF9814638003D
:1008A00003F075F9724903F024F9011C484603F07E
:1008B00020F9071CA1E60023B846336075E6002B3B
:1008C00002D1002A00D079E6FFF704FD06980799C7
:1008D0000023694A8018594106900791002900DBDE
:1008E0006CE60123654C5B420693079466E600279D
:1008F00083E600F07FFD00286BD10C9B1B78002B5A
:1009000000D198E60A21059802F074FA002900D077
:1009100091E62A22584603F0D5F901F0DBFD0E9B43
:10092000040018688023159F5B03381A984255DD30
:10093000504BC01802F038FD0022514B02F0C5FCAC
:100940000022504B02F0C1FC07F09EFC0B9B82463C
:100950001A680023002A0DD0099B18688023381AD2
:100960005B0398424DDD434BC018A31A9946002300
:10097000944251D11E93169B5246209300231D9200
:1009800012AA93874346424618881CA9431C138029
:100990002A235A461C941F9700F00EF9002824D1F0
:1009A000159B099A13600B9B1C6044E636498B42E9
:1009B00000DB5FE7802189035B185BE7324B9C42D9
:1009C00000DB12E680239B03E4180EE6FFF7B8FC79
:1009D0003CE60021201C00F06BFC8EE72A4B98427D
:1009E000A8DA80239B03C018A4E758445F468146D9
:1009F0003878013704F018FEB945F9D104F076FED5
:100A0000CEE7214B9842B0DA80239B03C018A31A8B
:100A1000994600239442ADD002F0C6FC0022184B48
:100A200002F053FC12901391484602F0B9FC0022E8
:100A3000144B02F02CFC02000B001298139902F0E8
:100A400026FC104B002202F040FC07F01DFC0300C6
:100A500090E758445D4604002878013504F0E4FD31
:100A6000AC42F9D104F042FE01E5C04600007A44F0
:100A7000002474490000E0FF40420F00FFFFFF7FA9
:100A80000000A03E80842E410000F0FF30B50D1E16
:100A90002CD001004519164C16480B781B02584003
:100AA000430000B2002800DA63405A001B0400D55E
:100AB00062405300120400D563405A001B0400D565
:100AC00062405300120400D563405A001B0400D555
:100AD00062405300120400D56340580080B21B04EA
:100AE00000D560400131A942D7D130BD0148FCE7B3
:100AF00021100000FFFF0000F0B583B005000F00DB
:100B000016000021082268461C0003F0DBF8002CC8
:100B10004BD0089B112B48D9A52368460822237087
:100B20004B3B6370593B0370A27147800022200049
:100B300025712D0A657125006946A370E370E27185
:100B400008300832019603F0C3F8194B1948A11C6C
:100B500010350A78120253405A001B0400D5424057
:100B60005300120400D543405A001B0400D54240F4
:100B70005300120400D543405A001B0400D54240E4
:100B80005300120400D543405A001B0400D54240D4
:100B90005300120400D543400131A942D9D112209B
:100BA00023741B0A637403B0F0BD0020FBE7C0464A
:100BB000FFFF000021100000F0B583B0002973D0C2
:100BC000002A71D01F2B6FD94B680D688C684F8A33
:100BD0000E8A9C46CB68898A10710191A5211170FB
:100BE0004B395170593991700131D170010A5171ED
:100BF000162191710021280ED0726046D171290A08
:100C00005172290C9172010A5173010C9173010EFA
:100C1000D173210A5174210C9174190A147413753B
:100C2000240E5175190C1B0E1073D4749175D37565
:100C30001572330A1676019953763B0AD3760B0A5E
:100C400053771E239C461A4C1A4B97761177901CAB
:100C50009444017809024B4059001B0400D56140BF
:100C60004B00090400D5634059001B0400D56140C6
:100C70004B00090400D5634059001B0400D56140B6
:100C80004B00090400D5634059001B0400D56140A6
:100C90004B00090400D5634001308445D9D19377D6
:100CA0001B0A2020D37700E0002003B0F0BDC0462F
:100CB00021100000FFFF0000F0B500295DD0002AE0
:100CC0005BD0152B59D94B880C890D784E789C46F2
:100CD0004B6849891071000A50710C2090710020F6
:100CE000D07160469072000AD072180A1373507364
:100CF000180C1B0ED3731423A5279C4617704B3F6B
:100D000057701474593F240A9770547402379174C1
:100D10001B4B090A1B4C9073D77015725672D17415
:100D2000901C9444017809024B4059001B0400D5E3
:100D300061404B00090400D5634059001B0400D5F5
:100D400061404B00090400D5634059001B0400D5E5
:100D500061404B00090400D5634059001B0400D5D5
:100D600061404B00090400D5634001306045D9D192
:100D700013751B0A1620537500E00020F0BDC04615
:100D8000FFFF00002110000030B5039C002C4ED066
:100D9000049D112D4BD9A5252071000A60710820F2
:100DA00025704B3D6570593DA570A071033500203D
:100DB000E5702500A272120AE2721A0A23736273A6
:100DC0001A0C1B0EE0712172E373090A194B1A48C1
:100DD0006172A273A11C10350A78120253405A00A6
:100DE0001B0400D542405300120400D543405A0072
:100DF0001B0400D542405300120400D543405A0062
:100E00001B0400D542405300120400D543405A0051
:100E10001B0400D542405300120400D54340013169
:100E2000A942D9D1122023741B0A637430BD00205B
:100E3000FCE7C046FFFF000021100000F0B5C646E9
:100E400000B586B00D0080461400002118226846C7
:100E50001E0002F037FF002D5AD0002C58D0212E52
:100E600056D9A523AA68E86829692E686F68944650
:100E70002A7D23704B3B6370593BA3700433E370AE
:100E8000434623711B0A63711823A3710023E37186
:100E900063460390029320006B4625001A75049167
:100EA0001822694608300096019702F011FF1B4B8B
:100EB0001B48A11C20350A78120253405A001B041B
:100EC00000D542405300120400D543405A001B0491
:100ED00000D542405300120400D543405A001B0481
:100EE00000D542405300120400D543405A001B0471
:100EF00000D542405300120400D543400131A942BD
:100F0000D9D12022A3541B0A01322220A35400E08D
:100F1000002006B080BCB846F0BDC046FFFF000010
:100F20002110000070B5002835D0214C1C22010092
:100F3000200002F0CDFEA169206807F069F80221C7
:100F400023681C485A681818016018680A40C5319F
:100F500048400831014080204001181801601649BE
:100F6000A0685B181A60012100F014FB0121E06801
:100F700000F010FB0121206900F00CFB606800F01C
:100F800033FB01226368D0259A4060692D066A62AE
:100F90006A61002800D170BD00F026FB0123606962
:100FA000002283400121AB6200F00CFBF3E7C04656
:100FB000941C00200430000004200000F0B585B02F
:100FC000060006220021684602AC02F07BFE0622E3
:100FD0000021200002F076FE002E77D0994D28687F
:100FE000002873D0CC236A469B00138001226B68D3
:100FF000D0279A403F06BA6106232200694607F0CF
:101000008BF901226B689A407A61A278E07853B23A
:10101000217957006479002B00DA0CE17B003F0650
:1010200000D501E15F001B0600D5F6E07B003F061E
:1010300000D5EBE05F001B0600D5E0E07B003F063B
:1010400000D5D5E05F001B0600D5CAE07B003F0657
:1010500000D5BEE043405F001B0600D5B2E07B0038
:101060003F0600D5A7E05F001B0600D59CE07B0093
:101070003F0600D591E05F001B0600D586E07B00AF
:101080003F0600D57BE05F001B0600D570E07B00CB
:101090003F0666D44B405F001B0649D47B003F06E9
:1010A00040D45F001B0637D47B003F062ED45F0080
:1010B0001B0649D47B003F0640D45F001B0649D481
:1010C0007B00DBB23F061CD49C4202D0002005B05E
:1010D000F0BD4001520302436869CB081A43002364
:1010E000002807D00124D02384401B065B682340DE
:1010F00058424341326007220A400120B280F38007
:10110000E5E707277B409C42E0D1E2E707277B40E9
:101110005F001B06CED517E007235F407B003F062C
:10112000C5D5F3E707277B405F001B06BCD5F3E777
:1011300007235F407B003F06B3D5F3E707277B40DB
:101140005F001B06BCD505E007235F407B003F0620
:10115000B3D5F3E707235F407B00DBB23F06B3D58F
:10116000CFE707277B404B405F001B0696D5DFE7A4
:1011700007235F407B003F0600D48BE7F1E707279A
:101180007B405F001B0600D481E7F1E707235F4047
:101190007B003F0600D476E7F1E707277B405F003E
:1011A0001B0600D46BE7F1E707235F407B003F0697
:1011B00000D460E7F1E707277B405F001B0600D4FF
:1011C00055E7F1E707235F407B003F0600D44AE77D
:1011D000F1E707277B4043405F001B0600D43EE752
:1011E000F0E707235F407B003F0600D432E7F0E7DB
:1011F00007277B405F001B0600D427E7F1E70723A2
:101200005F407B003F0600D41CE7F1E707277B40E7
:101210005F001B0600D411E7F1E707235F407B0066
:101220003F0600D406E7F1E707277B405F001B0677
:1012300000D4FBE6F1E707235F407B003F0600D4C4
:10124000F0E6F1E7941C002070B5002828D005686E
:10125000002D25D0134C14220100200002F038FD8F
:10126000E168280001F086F90221606800F092F937
:101270000221A06800F08EF9C02220681202036BE0
:1012800008211340084A821813600023012201F04C
:10129000FFF90121206801F037FA0122034B1A708F
:1012A00070BDC046B01C002030100000C3210020DB
:1012B000F0B5071C91B0081C02F090FC224D2E7C6A
:1012C00002900391381C02F089FC330000900191D8
:1012D0001E4A282106A804F095F81D4B1B78002B08
:1012E00001D111B0F0BD6B461C7E002CF9D02B68EB
:1012F000184A194D9A18514251414E00002120229E
:10130000B44606A8002912D16146495FA14215D012
:1013100099690A42FCD11C60017801300D394C42B8
:1013200061410478C9B2002CDBD00029ECD0996966
:101330000A42F0D099690A42F9D1ECE799690A4268
:10134000FCD10D211960E3E7B01C00202C840010B3
:10135000C32100200080FCBFA821002070B5204DD3
:101360008EB02B7C282100901E4A04A804F04AF875
:101370001D4B1B78002B01D10EB070BD6B461C7C41
:10138000002CF9D02B68194A194D9A185142514135
:101390004E0000212022B44604A8002912D1614643
:1013A000495FA14215D099690A42FCD11C600178BD
:1013B00001300D394C4261410478C9B2002CDBD0B8
:1013C0000029ECD099690A42F0D099690A42F9D112
:1013D000ECE799690A42FCD10D211960E3E7C046A8
:1013E000B01C00203C840010C32100200080FCBF02
:1013F000A8210020014B18787047C046C321002067
:10140000002808D00023036043608360C360036149
:10141000002343610376002909D08023DB050B609C
:10142000034B4B60FE239B058B60024BCB607047E8
:101430009A99993E0000C841002800D00160704789
:1014400000280BD0002908D0037E002B05D142686C
:10145000436102600022C260026101767047C046AB
:10146000F8B507000E1C151C1C1C002826D00021F6
:10147000301C02F081FB002837D11D49301C02F0DE
:1014800081FB002827D100213E60281C02F074FB5C
:10149000002828D11749281C02F074FB002810D11D
:1014A00000217D60201C02F067FB002811D111494A
:1014B000201C02F067FB002801D1BC60F8BD0D4C78
:1014C000FBE70C4D00217D60201C02F055FB00283D
:1014D000EDD00024F1E7064E00213E60281C02F00A
:1014E0004BFB0028D6D00025DAE70026CBE7C04624
:1014F0000000484200002041F0B5C64604000D003F
:1015000000B51F1C002837D0002935D08360037E2A
:101510004260002B2DD0111C006802F0E4FA29680B
:10152000804602F0FAFA6968061C381C02F0F5FAE7
:10153000011C301C02F0D7FAE96802F0EEFAAB6841
:10154000071C1E1C80231B069D19011C281C02F071
:1015500019FB002806D1391C301C02F00DFB351C8C
:1015600000280ED04346E36063692561013363615F
:1015700003E00023C36003610025281C80BCB8463B
:10158000F0BD4346E36063693D1C0133256163613F
:10159000F3E7C04610B54024074A83009A18126842
:1015A000C0005440C0222240044C1B191A60044B56
:1015B000C018416010BDC04604C0014004D00140C5
:1015C00000400140064B8000C3181B68C900920010
:1015D0000A435A400C231340024A801803607047A4
:1015E00004C0014004D001400123D02283401206F0
:1015F00093629361084A83009A181168402251400F
:1016000080320A400549C0005B181A60044BC018BC
:10161000052343607047C04604C0014004D0014028
:10162000004001408023DB051868000F7047C0466A
:101630000FB400B5084883B004F006F9049B002BF2
:1016400007D005A91800019103F0F0FE034804F04B
:10165000FBF8012003F002FF5C8400106C84001092
:1016600070B58C461600EFF3108472B60F490B6804
:10167000002BFCD0BFF35F8F6346DB08C518072241
:10168000C05C63461A40012393401A0002400342A3
:1016900007D118432870BFF35F8F0A6084F3108866
:1016A00070BD61463000FFF7C3FFC0462C0100D07B
:1016B000F8B5CE4647468C4680B51C00EFF310883F
:1016C00072B61C490B68002BFCD0BFF35F8FA2429F
:1016D00021D80723994602E00132944218D34946A3
:1016E000012611408E40D308C718C35C1E42F3D1B7
:1016F000100033433B70BFF35F8F00220D4B1A6025
:1017000088F3108800280EDBC0BCB946B046F8BD8F
:1017100001204042EFE7BFF35F8F00230B6088F3A7
:101720001088012040426346002BEDD00898FFF757
:101730007FFFC0462C0100D0044A1078431CDBB266
:10174000172B00D9102313707047C04634110020A6
:1017500000B5054B83B00100009318221F230348F6
:10176000FFF7A6FF03B000BD70840010281C002006
:101770000021044B044ABFF35F8F02C39342FAD1A6
:101780007047C046000100D0800100D0084B094AD4
:101790001360094A1360094A1360094A1360094A31
:1017A0001360094A1360094A1360094A13607047BD
:1017B0008080808000E400E004E400E008E400E0D1
:1017C0000CE400E010E400E014E400E018E400E0C1
:1017D0001CE400E01F2318401E3B8340002905D075
:1017E000C021044A490053501360704780220149C8
:1017F0008B50FAE700E100E001228240034B1B68B6
:1018000013405A1E9341D8B27047C04600E100E031
:1018100001238340014A13607047C04600E200E0A4
:10182000054B10309B688000C358044A00209B1A67
:101830002F229A424041704700ED00E0381100200D
:1018400070B50D00EFF3108672B60F4A1368002BC7
:10185000FCD0BFF35F8F0D4B10309B6884001B5989
:101860000B4A934203D09D4201D001F06FF9074B20
:101870009B681D51BFF35F8FBFF35F8F0022024B48
:101880001A6086F3108870BD240100D000ED00E0DE
:10189000C1010010F0B5DE4657464E464546E0B55C
:1018A000824683B08B461700EFF3108872B6604A09
:1018B0001368002BFCD0BFF35F8F00255D4B5D5795
:1018C0009946002D00DA9AE04A466B005A4C5E19A0
:1018D000B6000193A31900939B791370574B9A6834
:1018E000534610339B00D15899460B1B2F2B32D9EE
:1018F000534B994200D098E0019B0236ED18514BB2
:10190000AD006353504BA619043B9B1B4F4A1B056C
:101910005B0D651913436B804D4B0121AB80FF2399
:10192000AB715B46AB60009BEF710B4319004A46FD
:10193000424B9B689950BFF35F8FBFF35F8F0022CC
:101940003B4B1A6088F3108803B0F0BCBB46B2462C
:10195000A946A046F0BD01200A008243D379B446CF
:10196000BB422DD83B4BB51C190013001B1B5B4120
:101970005943090D8C46334B6519A353324B0099DB
:10198000043B5B1B1B05314D5B0D2B4304364B8029
:10199000A619131F9B1B1B055B0D1D4363468B7113
:1019A0005B468B602C4B8D80CF7113600143BEE78B
:1019B0005800C01880002018C679BE4225D9020000
:1019C0000623D356002BF3DA9A46131D9C46234870
:1019D0006346009E9571043EF61A36051B4B760D44
:1019E0001E43019B96805A1953469200A418A37176
:1019F0005B46194AA0802260E771A36097E701F077
:101A0000A5F800254B465D575EE766469A46131DCE
:101A10009C469088043640050015A6196044801B3A
:101A200000050A4E400D3043D2E701F08FF863E71E
:101A3000240100D0C42100203811002000ED00E076
:101A4000C101001000A1FFFF6811002000E0FFFFAE
:101A500001BDFFFFAAAA00000148804701BD0000A8
:101A60000123034370B59C46EFF30581EFF3108526
:101A700072B6214A1368002BFCD0BFF35F8F1F4B57
:101A800004001F4AE41A64416243120D1D4C890090
:101A9000A66852B2765866451CD006215956914226
:101AA0001CD012215956914222D01E2159569142E2
:101AB00020D02A2159560324914210D0124B197874
:101AC0001A708171BFF35F8F00220B4B1A6085F390
:101AD000108870BDA3680D4C5C50EFE700246100D6
:101AE000091989005B18FF21997109499980E5E777
:101AF0000124F4E70224F2E7240100D03811002089
:101B0000AAAA000000ED00E0C4210020C1010010DD
:101B100001BDFFFF00B5074B83B001000093002219
:101B200005230548FFF7C4FD002801DB1F23181A11
:101B300003B000BD8C840010C8210020024BC918DE
:101B4000890001607047C0464000003470B5114CF8
:101B5000114DAC420FD2FF262368002B0CD0FFF7AB
:101B6000EBFD01002000FFF7E9FFA680BFF35F8FC8
:101B70000834AC42F0D370BDFFF7DEFD0100200059
:101B8000FFF7DCFF2671BFF35F8F0834AC42E3D36D
:101B9000F1E7C046F81100200012002010B5040043
:101BA000FFF7CAFD01002000FFF7C8FFFF232371E4
:101BB000BFF35F8F10BDC04610B504000120FFF7D2
:101BC000C7FD034BC01880002060BFF35F8F10BDBE
:101BD00040000034034BC91889000160BFF35F8FD8
:101BE0007047C046400000340A4B1968EFF310807C
:101BF00072B60A68002AFCD0BFF35F8F1B68BFF380
:101C00005F8F00221A6080F3108840BF00200021FF
:101C10007047C0469C210020F0B5DE4657464E4630
:101C20004546E0B585B0EFF3058303221A40B34B78
:101C300091005F58012393409B4602925A46884682
:101C4000AF4B1A60AF4B03935B46AF484363082327
:101C5000FE5E002E37DABB881BB2002B00DBA4E04F
:101C6000BB79002B00D0E5E00823F95E002920DBDA
:101C70004B007A695B18DB00D3189D68DC686B1C2D
:101C800000D104E1A04801004144826A0B69AE1A08
:101C90009B1A9E4215D30123026A029883401A427E
:101CA0000FD0994800F00EFC8C4202DCCCD185426A
:101CB000CAD940BF05B0F0BCBB46B246A946A04653
:101CC000F0BD0D61EDE77A69730091469B19DB0069
:101CD00099444B469C68DD6800F0F4FB8D42BADC09
:101CE00000D1F6E0002D00DADBE04A464B465269AF
:101CF0001B699246039A934200D1CCE04A460821E0
:101D0000785E528800045146104398470090019134
:101D10000099019A0B00134300D1C2E013000A009E
:101D2000002B00DBD9E020002900801A99414B46A6
:101D30009860D96000229B5E002B00DA8BE75D0083
:101D40007C69EA18D200A21800949468D268A2466E
:101D50008A4200DD7FE702D1844200D97BE7082474
:101D6000A4463B81BC44009C00972F006546B446C6
:101D70003E0006E05E00F218D200A2189768D26812
:101D8000BA468A4207DC00D1B4E0F318DB00E5185C
:101D9000E35E002BEEDA66464A46009F13802E80F3
:101DA000BB881BB2002B00DA5AE73A69EFF31081C7
:101DB00072B61368002BFCD0BFF35F8F0123BE887F
:101DC0005B42BB8036B23B69BFF35F8F00221A6073
:101DD00081F31088002E00DA42E73B0008333A0016
:101DE00099467D6973009B190824115FDB00484602
:101DF000EB18002913DB9C680093A446DC6806E01E
:101E0000A34240D00023F95E3800002906DB4F00D2
:101E10007F18FF00EF19FB68A342F1DD009B0680ED
:101E200000201E5E1980002EDCDA1700BB79002B23
:101E300000D119E70023BB710823F95E4B1C00D1C8
:101E400037E73D000835AC467C6903E084464B1C0F
:101E500000D109E74B005B18DB00E0180A00E15EE7
:101E600043881BB2002BF1DA01256D42EE17856025
:101E7000C66008257B5F9342E9D0634619803B89A1
:101E800003803A81E3E7BB686345BBD9C6E7631CBF
:101E900000D0F7E605E7534650461B6998470028EF
:101EA00023D14B461B883A693B81EFF3108372B60E
:101EB00011680029FCD0BFF35F8F49467A880A80F9
:101EC0003A697E80BFF35F8F0021116083F3108831
:101ED000C1E6844200D805E7BDE60B4800F0F2FAFF
:101EE000009B019CC018614121E753460CCB009236
:101EF00001930DE7824500D847E74CE78021002099
:101F00003C700540191C00100040054070B52D4C78
:101F10002569002D04D00A212B48FFF70FFE70BD64
:101F20002A4E0321294800F0C3FAE660FFF704FCBB
:101F3000274B0322C018D02322701B061B680121E7
:101F40006370244B8000A3600F2320610220638014
:101F500063694942A18019800231198647311D8386
:101F6000585218315A5275325C399952183201312F
:101F7000995218320131995218320131995208356B
:101F800018329D5202311832995218320131995249
:101F900018320131995218320131995218320131F7
:101FA00099521832013199520B4B0C49DC600130C7
:101FB0003562FFF745FC01210320FFF70BFC084BBE
:101FC0001D60A8E7801100209C21002000400540F2
:101FD00040000034FFFF100080210020191C001079
:101FE000386005400048704780110020F8B51F0098
:101FF00008AB1B7804001600002B07D100F06AFA2A
:1020000032003B00121A8B41002B51DB2269EFF3A7
:10201000108C72B61368002BFCD0BFF35F8F0223C5
:10202000E15E256900293ADB4B0060695B18DB0043
:10203000C218C35A6380BFF35F8F00232B608CF3F9
:102040001088069B9660D7601361079B5361538885
:1020500001335B045B0C181C002B1ED083B2508034
:10206000080418432569EFF3108672B62B68002B1D
:10207000FCD0BFF35F8FA3881380A1802369BFF3D7
:102080005F8F00221A6086F31088237801329A400D
:102090000849E3685B181A60F8BD0120DEE7BFF36A
:1020A0005F8F00232B608CF3108801204042F3E700
:1020B0000020F1E73C20000070B582B0009201934F
:1020C00001000269EFF3108472B61368002BFCD094
:1020D000BFF35F8F0223C85E0D6900283FDB4A69AA
:1020E000430016001B18DB00D218F35A4B80BFF3D5
:1020F0005F8F00232B6084F31088069B1361079B7E
:102100005361009B019C9360D460538801335B044E
:102110005B0C1D1C002B20D0ACB203045580234364
:102120000D69EFF3108C72B62C68002CFCD0BFF355
:102130005F8F8C88148088800A69BFF35F8F0020CE
:1021400010608CF310880A7801309040CA68084902
:1021500052181060180002B070BD0125DCE7BFF313
:102160005F8F00232B6084F31088013BF2E7C046A9
:102170003C20000010B543890A1493421ADD530035
:102180009B184269DB00D3180469EFF3108C72B618
:102190002268002AFCD0BFF35F8F5A88090494B2EA
:1021A000090C8A4208D00369BFF35F8F00221A60CE
:1021B0008CF31088002010BD094A22435A80012365
:1021C00002698371BFF35F8F002111608CF3108867
:1021D000027804499340C268012052181360EAE76C
:1021E0000080FFFF3C20000040787047F0B50600FB
:1021F0000F0006246442E517A4197D4183B08D4287
:1022000012D80FD000F066F922002B00121A8B4171
:10221000002B13DC002B41D03000390000F09AF97C
:1022200003B0F0BD8442EDD90024002500F052F93E
:1022300022002B00121A8B41002BEBDD00F04AF933
:1022400022002B00121A8B41002B0ADB0023019382
:10225000144B2200009314482B00FFF72DFF013090
:10226000DAD02900114A1248536A994204D8956A73
:10227000A542D1D29942CFD10568EFF3108C72B646
:102280002B68002BFCD0BFF35F8F0368BFF35F8F19
:1022900000251D608CF3108820BFE5E7002ABBD025
:1022A000CCE7C046E91B001080110020004005402B
:1022B0009C210020F0B5C64600B582B0040000F0B5
:1022C00009F9FA2206000F002000002300219200E5
:1022D00001F0ECFB8019794104000D1E02DA0124A3
:1022E0002E4D644206267642F71736196F41AF42EB
:1022F00014D811D000F0EEF832003B00121A8B41D6
:10230000002B15DC002B46D02000290000F022F91C
:1023100002B080BCB846F0BDA642EBD9002600272B
:1023200000F0D8F832003B00121A8B41002BE9DD97
:1023300000F0D0F832003B00121A8B41002B0ADB70
:1023400000230193164B3200009316483B00FFF721
:10235000B3FE0130D8D000233900B0469C46124A63
:102360001248536A994204D8966A4645CCD299429B
:10237000CAD10668EFF3108772B63368002BFCD021
:10238000BFF35F8F0368BFF35F8F66461E6087F3FE
:10239000108820BFE5E7002AB6D0C9E7FFFFFF7F1E
:1023A000E91B001080110020004005409C21002006
:1023B000F0B5CE46474680B504000D0085B0EFF37A
:1023C00005868946002E10D0364900204B6AAB4264
:1023D00006D38A6A5B1B591E8B41A24240411843B7
:1023E00005B0C0BCB946B046F0BD2F4FFB683A7887
:1023F00098461800039200F065F8039A131D4246B0
:102400009B009B5822001B1A9C462B00121A8B41E2
:102410009E4210DC0DD020BF224A0020536A4B455B
:10242000DED3926A5B1B591E8B41A2424041184386
:10243000D6E79445EFD900F04DF822002B00121A90
:102440008B41002B1BDB00230193184B22000093D0
:1024500038002B00FFF730FE002810DD114B5A6AC0
:102460004A451CD39B6AA34217D301003800FFF7EB
:1024700081FE0C4A0020536A4B45B1D3D1E7094A8B
:102480000020536A4B45ABD30020926A5B1BA242EB
:1024900040415A1E93411843A2E74A45E5D120BF67
:1024A000E3E7C0460040054080110020E91B001012
:1024B00010B5024A0248FFF7D3F810BDA8840010F7
:1024C0002C1C00200300416A0A00986A596A8A425B
:1024D000FAD17047034B596A0A00986A596A9142C7
:1024E000FAD170470040054070B505000E00184A4B
:1024F000536A1900946A536A8B42FAD1200019007A
:102500002C00350024184D41AB4216D813D0104B87
:102510002A005B6A9D4203D90D494B6A9342FCD362
:10252000934207D10A4A02E0516A994202D1916A64
:10253000A142F9D370BDA042E9D9054B5B6A1C00EA
:102540005A1CEFD0012201246442E5175242E3E70E
:1025500000400540064A536A9942FCD807D1044B13
:1025600002E05A6A914202D19A6A9042F9D87047C1
:1025700000400540F8B5040006200D0000F0D8F931
:10258000002843D0364B3749E3185A1E9341802226
:102590005B429B0D12049B059B18334A1360334A20
:1025A000136018000A689043FBD12D4B304AE318A2
:1025B00059424B4180215B0049000620995200F0AE
:1025C000B7F92900C00000F015FC0130C3091ED185
:1025D000402701226262A362266BF30722D4E36ADA
:1025E000244B0620E51800232B60266300F0A0F999
:1025F0003900800000F0FEFB7023E26A5A400E337F
:1026000013402B601C4B23630323A364F8BD1B4AB8
:1026100093421DD900231A4A1A4F6262A362266BA5
:10262000F307DCD5184B144AE3181A60656AA36AED
:102630000620AD01ED1800F07BF9144900F0DAFB3B
:102640000100A80200F0D6FB0021FFF74DFFC6E70E
:1026500040069A01800E17181A000300BAE7C04618
:102660000080FCBF08C0004000E0004000F00040D7
:10267000A82100202C10000001030000FEFF000034
:10268000FFFF0000C0FF3F00303000004E0E000092
:102690000539013AF8B5D2004C0105001443002B6E
:1026A00006D0013B5A4253419B00234302241C4362
:1026B0002E6BF30708D46E23EA6A624013400E4A79
:1026C000AA1813602E63F8BD0C4B0D4AEB181A6064
:1026D0006B6AAA6A9B0106209F1800F029F9094934
:1026E00000F088FBBF020100380000F083FB0021EE
:1026F000FFF7FAFEDFE7C0462C1000003030000084
:10270000010300004E0E0000F8B5066B04000D0139
:10271000F30708D4E36A5D4010231D400D4BE31816
:102720001D602663F8BD0C4B0C4AC3181A60436A3F
:10273000826A9B0106209F1800F0FAF8084900F011
:1027400059FBBF020100380000F054FB0021FFF7E5
:10275000CBFEDFE72C10000030300000010300004A
:102760004E0E0000F8B5DE464E4645465746E0B5EB
:1027700005008B4618000A99914600F03BFB0A9B26
:102780006C001E026419304BA400E4186368804694
:102790009E4200D966602F1FFBB29A46012B2FD9AB
:1027A000C0238022294FAD009B0179591201E31803
:1027B0001A6000291BD14B4622685B015340E0227E
:1027C000134080225201A21813605346012B2FD9C7
:1027D000802380229B01E31812011A604346666041
:1027E0007B51F0BCBB46B246A946A046F8BD78690D
:1027F00000F000FB013043001B18033BFDD2DAE779
:102800005B46012BCCD1C02303229B01E3181A6045
:10281000023AA3681A42FCD04A46236852015A4041
:10282000E023134080225201A218084F1360AD002C
:1028300058460323216841400B4013600122824027
:10284000A3681A42FCD0C3E700800040301C00207F
:10285000F0B5D6464F464646440098462418324BBB
:10286000A400E41863688A469146C0B5FF2B02D8DD
:1028700080235B006360061FF6B2012E2FD9C023B0
:1028800080222A4F85009B0179591201E3181A60B2
:1028900000291BD14B4622685B015340E0221340C4
:1028A00080225201A2181360012E30D98023802289
:1028B0009B01E31812011A6080235B0063604346AA
:1028C0007B51E0BCBA46B146A846F0BD786900F03D
:1028D00091FA013043001B18033BFDD2DAE753465F
:1028E000012BCCD1C02303229B01E3181A60023ACA
:1028F000A3681A42FCD04A46236852015A40E0239A
:10290000134080225201A218084F136085005046E0
:102910000323216841400B40136001228240A368D9
:102920001A42FCD0C2E7C04600800040301C0020A4
:10293000014B8000C0587047301C0020F0B5C646DF
:10294000040000B52348160098460D0000F052FA26
:102950000100300000F04EFA4346069A1B041203B1
:1029600013439C4623680600002B22DB1A4B1B48AE
:10297000E218531E9A4180235242120B9B0112030C
:10298000D218174B1A60174B1A60130001688B435B
:10299000FBD12122144B2560E318A6601A6022683F
:1029A000002AFCDA6246E26008221A6080BCB8465F
:1029B000F0BD3F2322681340AB42D7D1A3681B056B
:1029C0001B0D8342D2D1EE22E368D202134063454D
:1029D000CCD1EBE7001BB7000040FDBF08C00040B2
:1029E00000E0004000F000400430000010B58024FA
:1029F0001C4BE4051C6000281AD001231A4C184314
:102A00001A4BDC611A4C44401C6259629862802166
:102A1000144BC9051960174817490860E021C9041B
:102A20001960002A07D18022144B12061A6010BDCB
:102A30000E4BD861EBE753019B1A9B009A18802339
:102A400012015B049A4209D213000D490B60074B37
:102A50005A608022094BD2051A60E8E7094B1A0038
:102A6000F3E7C04600B00540D3C007B00080054082
:102A70002D3FF84FFCFF01000820014000A0054059
:102A800058210020FFFFFF008023024A9B000B43D8
:102A9000D362704700800540002310B50100988A7A
:102AA0001B8B984710BDC046162310B5010018882F
:102AB0005B88984710BDC046F8B54746CE4680B5FE
:102AC0000F1E18D014239946043304000025012654
:102AD00098464B461888434621681B88984701C48E
:102AE000431E984101350640AF42F2D13000C0BCD0
:102AF000B946B046F8BD0126F8E7C046002370B5D8
:102B000004000D00988A05491B8B9847030000209C
:102B1000002C01DB0130A0402900984755420000FD
:102B2000AA23064A1B0113608D235B00D36004496E
:102B3000044B19605368002BFCDA704700400240D8
:102B400000B0FA00006002407047C04610B501486E
:102B5000FEF76EFDCC84001070B5074D074EB542F0
:102B600009D20024013E761BB608013608CD013497
:102B70009847B442FAD170BD68830010A483001056
:102B8000054B064A06491A60064A074B1A601000B0
:102B90000B689843FBD1704700E00040BFCDFBFEBF
:102BA00008C00040FE7F3C0000F00040044BDB6C9E
:102BB000002B03D18022034BD2021A607047C0461B
:102BC000000011504C201150044A054B1A60054A70
:102BD0001368DB018033FBD17047C046FFFFFF0164
:102BE00000F0004008C000404022034B9A675A673B
:102BF0001A67DA667047C04600F0014010B5FEF76C
:102C0000B7FD10BD70B52849284D294E6D1AAC107E
:102C10002200302C00D930223000920001F058F808
:102C2000BC2D3DD823002A3B224A052B1DD930203C
:102C300075196D07A446001BEB0F002D03DA611C0C
:102C40008C46A1007250C01AE3189B004108F3188B
:102C5000C900C9181A605A6008339942FAD1012391
:102C600003421DD0984360440400A300F250631C4B
:102C70002F2C15D09B00F250A31C2E2C10D09B00A3
:102C8000F250E31C2D2C0BD09B00F250231D2C2C5A
:102C900006D09B00F250631D2B2C01D09B00F250FC
:102CA000054B9E6070BDC04600010010C0010010C1
:102CB00000000020C101001000ED00E0002310B56D
:102CC000294C82B0A367FFF72BFF0122274B1A6024
:102CD000636C012BFCD10322254B1A60224A936BB3
:102CE000012BFCD1013300930121224A22480433F5
:102CF000FFF724FE052301210093204A2048FFF717
:102D00001DFE0022022104201E4BFFF7A1FD002220
:102D1000012105201C4BFFF79BFD0022002107200D
:102D20001A4BFFF795FD002200210820174BFFF7F3
:102D30008FFD8023DB000093002200210920134B2C
:102D4000FFF710FD0022104B00210620FFF780FD49
:102D50000420FFF7EDFD0E4900F04CF801000020C3
:102D6000FFF792FE02B010BD008000403CB0004072
:102D700030B00040002F685900800240008C864728
:102D800000C00240001BB70040597307006CDC0212
:102D900040420F0001480421014B1847A0110020B8
:102DA000B92A0010124A936F9B0815D29066D1661B
:102DB000002905D0FFE7FFE7FFE7516F106F70476D
:102DC00004B580210906C2175140002800D0C8432D
:102DD00005F082FA002104BDF0B5146E556E576FF0
:102DE000166FFFF7E3FF1466556657671667F0BD69
:102DF000000000D0114A936F9B0813D210665166F1
:102E0000002905D0FFE7FFE7FFE7516F106F70471C
:102E100004B5002801D00020C04305F05DFA002170
:102E200004BDC046F0B5146E556E576F166FFFF7B0
:102E3000E5FF1466556657671667F0BD000000D0C1
:102E400094464A4A926F9208624601D228E0C046F0
:102E5000F0B5464E346E756E776F366F00F020F821
:102E60009446424A14665566576716676246F0BD37
:102E700094463E4A926F9208624601D254E0C046A0
:102E8000F0B53A4E346E756E776F366F00F04CF8D1
:102E90009446364A14665566576716676246F0BD13
:102EA000002B24DB11D000293EDA00B5C943404293
:102EB00000D1013100F038F8C943404200D101315E
:102EC000DB43524200D1013300BD002AEBD1002880
:102ED00001D1002905D00020C90FC90701D1C04385
:102EE000410800B505F0F0F90022002300BD00B54F
:102EF00000290ADBDB43524200D1013300F014F811
:102F0000C943404200D1013100BDC943404200D114
:102F10000131DB43524200D1013300F005F8DB43BD
:102F2000524200D1013300BD002923D1002B18D11A
:102F3000002A0CD0BC460D4F38667A66002100236B
:102F4000FFE7FFE7FFE77A6F386F674670470028B3
:102F500001D00748010000B505F0B6F900220023B2
:102F600000BD02000B00002000217047000000D0CF
:102F7000FFFFFFFF002B00D0BFE0130C28D1002A79
:102F8000E7D080B4114F39667A66FFE7FFE730B4C7
:102F9000040C7B6F396F1B0423433B667A66FFE7A3
:102FA000FFE7FFE7C04684B27B6F3D6F1B042343FE
:102FB0003B667A66FFE7FFE7C04600232C042D0C32
:102FC0007A6F386F00196941B0BC7047000000D0BB
:102FD000F0B594460025140E01D112020835140FE5
:102FE00001D112010435940F01D192000235D40FA2
:102FF00001D152000135D40B0134254F7C66254C9C
:103000003C660E0C93B2FFE7FFE7FFE73C6F6643B9
:10301000360C7703BE467343DF0B5B04C01AB9411D
:10302000130C7343DB18C91ACE086643360CB6443A
:1030300093B273431F0F1B01C01AB941130C7343A2
:103040001F0B1B05C01AB941860D8F023E43664314
:10305000360C092D24DB520A7243801A7703460A84
:103060006643360C16235B1BDE40DF40BF19644607
:103070006643821B7046043506330100D940A840E0
:10308000C01900D30131A24206D20023F0BD0000D6
:10309000000000D0FFFFFFFF121B0130F3D3F1E768
:1030A00009277F1BFE406446A2B27243801A00D2F9
:1030B0000139220C7243130C1204821A99410B003D
:1030C0007046043513370100F940A840801900D339
:1030D0000131002B02D1A2420AD2F0BD013000D34F
:1030E0000131121BFAD2013BF8D1A24200D2F0BD4D
:1030F000013000D30131121BF7E7F0B51C0C00D0F2
:1031000080E00CB400251C0A04D11B02160E3343C8
:10311000120208351C0B04D11B01160F3343120198
:1031200004359C0B04D19B00960F3343920002356B
:10313000DC0B02D192185B4101351C0097186441E9
:103140000134464F7C66464C3C660E0CFFE7FFE7B9
:10315000FFE7C0463C6F6643360C7703BE4697B226
:103160007743C01B00D20139C01B00D201399FB286
:103170007743C91BC91B170C77437E04FF0B801BC9
:10318000B941CE086643360C0C2D33DBB644120B26
:103190001F053A431B0B97B27743C01B00D201397E
:1031A0009FB27743C91B170C77433E043F0C801B2B
:1031B000B941860D8F023E43664329277F1BFE409F
:1031C0000C3D7746AF40BF1930BCA2B2ABB27243E0
:1031D0007343801A9941220C7243130C1204801A13
:1031E000994102000B000137001BA941F9D2781E5A
:1031F0000021F0BD0C277F1BFE4077467F0BAF40C0
:10320000FF19E0E700245D1C07D0144F7D66396686
:10321000FFE7FFE7FFE7FFE73C6F95B29EB265432C
:103220006643401BB141150C1E0C654366433604D2
:103230002F0C3E432D04401BB141994204D20200A1
:103240000B0020000021F0BD01D19042F7D3801A7D
:10325000994101349942F2D3F6E70000000000D012
:10326000FFFFFFFF48404140484018B41B4B5B68DC
:10327000FC46019308BD04DF6735001018B4174BF6
:103280001B68FC46019308BD00DF713500109446B1
:10329000134A926F920809D2624618B40F4BDB684A
:1032A000FC46019308BD0CDF293800100C4AF0B52C
:1032B000146E556E576F166F6246FFF7EEFF084AA1
:1032C0001466556657671667F0BD18B4034B9B68C4
:1032D000FC46019308BD08DFCD36001050140020D5
:1032E000000000D0FFB550404240504059404B4094
:1032F000594000E0FFB5154F4C00640D03D0BC42AF
:1033000004D10C0314D80020090D09055C00640DDC
:1033100003D0BC4204D11C030AD800221B0D1B059C
:1033200001264B4009D44B4003D58B4200D1824249
:10333000FFBD9942FCD19042FFBD0B43DB18034314
:103340001343F5D0C9434918FFBD0000FF07000033
:1033500000B5FFF7CFFF804100BDC04600B5FFF7C5
:10336000C9FF01D9002000BD012000BD00B5FFF755
:10337000B9FF01D9002000BD012000BD00B5FFF755
:10338000B1FF804100BD012040054A00121804D859
:103390005A00121801D80020704701207047000021
:1033A0000021002805D17047C1174840401AFAD0C3
:1033B000C90713B5064B1B6898470CBC441CA240B8
:1033C0001005120B0349091B09051943114310BDD0
:1033D000982100201F04000010B54C00620D8023CE
:1033E000D218DB00D21A5B057E2A10DD9E3A13DA72
:1033F000CC170903490819435242D14064000134F3
:103400001532202A05DAD0400843604310BD002061
:1034100010BD0846604310BDC80FC018013810BD6C
:1034200018B4044B5B6AFC46019308BD24DFD9390C
:103430000010000050140020C94211D300B549000B
:103440004908002200F018F8002904D40022404264
:103450008A41114600BD80210906002000BD000000
:1034600018B4044BDB6EFC46019308BD6CDFE739F2
:10347000001000005014002018B4044B9B6FFC4651
:10348000019308BD78DF033A0010000050140020BB
:10349000132370B51D78012D19D014DD1F48FFF7D7
:1034A00003FB06001E48FFF7FFFA1E4C8022310086
:1034B000200000F00DFC022D2DD01B48FFF7ECFA88
:1034C0001A4B186070BD1A4B164CA364F5E7184BE5
:1034D000144C23606360A360E36023616361A361B4
:1034E000E36123626362A362E36223636363A363B2
:1034F000E36323646364A364E36423656365A36592
:10350000E36523666366A366E36623676367A36771
:10351000E367A364D1E7064BA364CEE753440000FE
:1035200053460000501400204C3300009821002026
:103530003535001007B5604601880A0A0230DF2AD7
:10354000FAD1C9B2820804D302884088000410432B
:1035500000E00068014A5050039007BD501400205D
:103560000FB403BC0CBCF0B50124E407634000E0D9
:10357000F0B50C0DCF0F661E3605891B640503D30D
:10358000C943404200D30131640D03D0661CF60AE2
:1035900007D0E41B00207F00791C89078912803C3A
:1035A00024031D0DDF0F6E1E36059B1B6D0503D317
:1035B000DB43524200D301336D0D03D06E1CF60A7B
:1035C00007D0ED1B00227F007B1C9B079B12803DD8
:1035D0002D032F1B661B58D4A446202E46DA203715
:1035E0001400BC401D00BD40F24033412A43801806
:1035F0005941CB0F05D0C943C0430022644250411A
:10360000514162464D0D28D10D0D07D100281FD024
:10361000241940414941013A0D0DF9D0640006D307
:10362000013000D30131002C01D140084000013AA3
:103630000BD4941CE40A04D112051144DB0719448D
:10364000F0BDD907204B194300E0D9070020F0BD99
:103650000029DDD1002CDBD1F0BD0132C6074008C6
:10366000CD0728434908002EE1D0D9E73C2E29DABE
:10367000203E40371400BC4000D00124F2401443E7
:103680001A00BB401C43D317ACE7AC46202F08DA26
:1036900020360400B4400D00B540F84039412843BD
:1036A000A5E73C2F0CDA203F40360400B44000D0A0
:1036B0000124F84004430800B1400C43C117EAE775
:1036C00010001900002494E70000F07FF0B50C0D05
:1036D000661E3605891BE60A6405640D02D0651C6A
:1036E000ED0A04D0002001210905803C2403A446F2
:1036F0001C0D671E3F05DB1BE70A6405640D02D045
:10370000651CED0A04D0002201231B05803C240324
:103710007740644497B484B296B27443070C7E43F6
:10372000150C6F4380B26843361802D301200004A1
:103730003F183004350C00197D41844688B29AB296
:1037400050430C0C62431F0C7C438EB27E43921993
:1037500002D301263604A4191604170C3618674143
:1037600001BC81B29AB25143040C62431B0C5C430E
:1037700080B25843121802D3012000042418100408
:10378000130C401863412D185E410020474106BCD0
:1037900088B293B258430C0C6343120C544389B261
:1037A00051435B1802D301210904641819041A0C4F
:1037B000091862416D1856410020474118BCF902B2
:1037C000720D1143F0026A0D1043ED020A0D03D190
:1037D0006D1940414941013B124E9B1B7600B3429B
:1037E0000ED26D0007D30130002671416646354385
:1037F00001D1400840001B05C918E4072144F0BD71
:103800000BDA013306D1013004D101314F0D01D063
:103810004908F2E7E1070020F0BD0136310500203C
:10382000EBE70000FF030000F0B51C0D671E3F052D
:10383000DB1BE70A6405640D02D0661CF60A04D09F
:10384000002201231B05803C2403D0252D060026E1
:10385000F6432E661E096E66CE0FF619B446490071
:103860004F0D02D07E1CF60A03D000200021403FFD
:103870003F033E1BB600B444013F7F05C91B490806
:103880002E6F013676089C02950D25437543ED1386
:103890007543AD1301356D10F603761B0CB4CC02E5
:1038A000450D2C43A2B2B3B25A43270C7B43350CCF
:1038B0006F43A4B26C431B1902D3012424043F19A3
:1038C0001C041D0CA4187D4124196D41009A91B26D
:1038D000ACB26143170C7C432B0C5F4392B25A434A
:1038E000A41802D301221204BF182204230C521878
:1038F0007B41019C6C431B19520ED9010A434401C0
:10390000A01A81B2B2B2514303145A43360C734326
:1039100087B27743D617D21900277E4136049B1908
:103920001704160C7F185E417316ED18F30100267C
:1039300080337541A90F06D16400690AE8055B0A66
:10394000184309D22FE00422944480337541A90A18
:10395000A8059B0A184326D3404149412404009AF4
:10396000019B0D005543641B4343E41A95B286B294
:103970007543170C7E43030C5F4392B25A43B6184B
:1039800002D301221204BF183204330C52197B41B6
:1039900052429C41002C02D4002201305141400887
:1039A000CA071043490802B06246D7079210084B75
:1039B000D218084B9A4203D212058918C919F0BDD2
:1039C0000020002A01DC3900F0BD01331905F5E7BC
:1039D000FD030000FE070000002200B5203200F0C9
:1039E00010F8080000BD002200B500F00CF8CA175E
:1039F0009A4200D100BDD8430121C907414000BD12
:103A000000220B150AD410B5944600F031F81414B6
:103A1000013400DA0021CB17144C2047002000218C
:103A200070476244343A0CD40C2A07DA04009140FF
:103A3000904052422032D440214310BDD843D94354
:103A400010BD203207D40C4694405242203211411E
:103A5000D040204310BD0800C917203203D4524281
:103A60002032104110BD1800190010BD233A00107B
:103A70000A0DCC0F531E1B05C91A520503D3C943A7
:103A8000404200D30131520D03D0531CDB0A07D052
:103A9000121B00206400611C89078912803A1203FE
:103AA000014BD21A70470000FF030000514343430B
:103AB000C9188C46110C83B24B4310B4040C6143FB
:103AC00092B280B2504362431C041B0C001910BC1C
:103AD00059411304120CC018514161447047000051
:103AE0004840414048400E4B5B6818470C4B1B68F0
:103AF00018470C4A936F9B0802D2094BDB681847A2
:103B0000F0B5146E556E576F166FFFF7F6FF054A46
:103B10001466556657671667F0BD014B9B681847DA
:103B200050150020000000D007B5484041404840F3
:103B300001E0C04607B54200120E03D0FF2A03D1B0
:103B4000420218D8C00DC0054A00120E03D0FF2A49
:103B500003D14A020FD8C90DC9050122414005D43D
:103B6000414001D5814207BD884207BD0143491844
:103B700001D0C043001807BD00B5FFF7DBFF80414F
:103B800000BDC04600B5FFF7CFFF804100BD491A18
:103B9000002807D108467047C10FC90700D5404229
:103BA000002817D0F44603B40B4B1B68984706BC9B
:103BB00081409E384042803107D20B0607D0490031
:103BC000490AC0051043084360470130F8E7490A35
:103BD0008902F5E77047000098210020034BDB6F56
:103BE000FC4618477CDF853C001000005015002083
:103BF000132310B51C781348FEF756FF012C0BD089
:103C000004DD01008022104800F062F80F48FEF742
:103C100043FF0F4B186010BD0B4C010054222000D5
:103C200000F056F80B4B6365A365E3652366636696
:103C3000A366E36623676367A367E3672362E361C1
:103C4000E4E7C04653460000501500204C33000006
:103C500098210020593C001007B5604601880A0AE7
:103C60000230DF2AFAD1C9B2820804D30288408820
:103C70000004104300E00068014A5050039007BD63
:103C800050150020C30FDB0741000A0E07D0FF2AA2
:103C900008D00909054A89181943400770471900D7
:103CA000002070470249C918FAE7000000000038F8
:103CB0000000F07F01480421014B1847B01100209B
:103CC000B92A0010014B1B6818470000B0110020F2
:103CD000014B5B6818470000B01100209A4200D2E7
:103CE000885470477047C046F8B5DE4657464E4682
:103CF0004546E0B599460D9B0700884693469B07CD
:103D000028D00B9B002B3CD016000B9C0A9D36192B
:103D1000321B013C4B464146285DB847002CF7D189
:103D200035000D9B9B070ED55B46EC1A0C9BA342FE
:103D300009D91E002A004B46414620200134B847CD
:103D40000135B442F6D32800F0BCBB46B246A946C2
:103D5000A046F8BD0B9B0C9A934214D213005D460B
:103D60000C000B9A9E1A76192A004B460135210049
:103D70002020B847B542F7D10B9BA046002BC4D1F9
:103D8000E1E71500CDE75E46002BBED15D46DAE7E0
:103D9000F0B54F46D6464646C0B584B09C460EABFD
:103DA0001F78129B9146BA460D9C109E119D9B0751
:103DB0004CD4002D41D1B44248D20123129F1F4060
:103DC000B8460C9B5F1E302303E001343B55A642EE
:103DD00001D9202CF9D14346002B00D187E00C9B60
:103DE0005F1E3023A54204D830E001343B55AC427D
:103DF0002CD0202CF9D1129BDB060DD5129B5B0534
:103E000057D4A64267D0A54265D00F9B102B53D044
:103E1000022B5BD0202C36D12023129C01930C9BCB
:103E20004A460093039463460295FFF75DFF04B092
:103E3000E0BCBA46B146A846F0BD0123129A134031
:103E40009846012313422DD1B442BAD3129BDB060C
:103E50001ED5129B5B05D8D4002CD2D10F9B102B02
:103E600060D00F9B022B71D0302301240C9A137069
:103E70005346002B11D1129B5B0740D52B260C9A81
:103E8000631C1655C9E72300013430260C9AD6541A
:103E9000202CC1D05346002BEDD02D260C9A631C4C
:103EA0001655BAE7002F34D0013DB44200D288E75E
:103EB00095E70F9B102BAFD1129B9B063CD5202C76
:103EC000AAD058230C9A13550134A3E7202CA3D071
:103ED0002300013407E0631E012CBFD00F9A102A83
:103EE00036D0022AD1D162260C9AD65492E7129B80
:103EF000DB06CDD5129B5B0500D482E785E7129ADD
:103F00002300160700D488E720260C9A01331655A3
:103F100083E70C2313405F1EBB41ED1AB44200D26D
:103F20004FE75CE7129B9B060ED478230C9A022481
:103F30001370302353709BE7202C00D16CE778235B
:103F40000C9A1355013465E75823EFE76033EDE72A
:103F50000C9AA61EB618129A920602D558223270F2
:103F600093E77822327090E710B5002800D110BD99
:103F700001F020FCFBE7C046F0B54E46DE46574652
:103F80004546E0B595B083468946924698461E9AC6
:103F90001F9B10001900209EFFF7F5F9002800D0A4
:103FA000D2E11E981F990122C44B5242FFF7D0F96B
:103FB000002800D001E11E981F990122C04B5242F7
:103FC000FFF7DCF9002800D0D6E01E981F990022E8
:103FD000BC4BFFF7D3F9002800D0B5E01E981F991D
:103FE0000022B94BFFF7B4F9002800D0ACE01E98CE
:103FF0001F9900220023FFF7ABF9002800D0D1E081
:1040000000230B93229B5B0500D40626002430235B
:1040100006E006AA013417321355013E202C01D0C8
:10402000092EF6D81E981F99FFF7D6F9A74BF20074
:104030009B180CCB050008920993FFF7B5F9020015
:104040000B001E981F99FFF710F9089A099BFFF7BC
:104050003CF906900791FFF7E3F90700FFF7A0F995
:1040600002000B0006980799FFF7FFF80022984B13
:1040700006900791FFF782F9002800D1E9E00137A7
:104080003800FFF78DF902000B0008980999FFF737
:1040900065F9002801D000270135002E00D1B7E0D6
:1040A000069513E0172306AA9B180A21380001344D
:1040B0001D19FEF79FFE3031297038000A21013E9C
:1040C000FEF798FE092F00D8E1E00700202CE9D187
:1040D000069D20240CAB0693172706ABFF180DE0B6
:1040E00028000A21FEF75EFE0134303128003955E0
:1040F0000A21FEF757FE051E00D1B7E0202CEFD1B4
:104100000323229A1340012B17D1219B002B14D09B
:104110000B9B002B00D1E3E0219B013B2193202B43
:104120000BD93023219A06E006A9013417310B552B
:10413000944200D3A0E0202CF6D1229B019403935B
:10414000219B0293069B21E0229B52460493219BD4
:104150004946039358461E9B1F9C02960093019468
:10416000434600F043F90400200015B0F0BCBB4604
:10417000B246A946A046F0BD229B5B070FD403229E
:10418000544B229901920391219902910093524636
:10419000434649465846FFF7A7FD0400E4E70422DA
:1041A0004D4BEEE71E9A1F9B00200021FFF75DF8A4
:1041B00001231E901F910B9324E70223229A544659
:1041C0001A40229B06929B0700D1ACE02600434D8B
:1041D00008942F1F3200E87843464946013DD847EE
:1041E0000136BD42F6D1089C069B0434002BBBD09F
:1041F0005746219AE31B9A42B6D91500220043463E
:10420000494620200134D847E31BAB42F6D3ABE745
:104210002800FFF7C9F802000B001E981F99FFF74E
:1042200024F82B4B002206000F00FFF791F80CAB8F
:104230000693002800D04FE7002230003900244BBD
:10424000FFF79CF8002800D046E7012301359D4385
:1042500042E70022069807991D4BFFF779F80028DE
:1042600000D01AE7002F59D1013716E70323229A0D
:104270001340012B00D1A6E0202C00D15DE70B9B61
:10428000002B3AD02D23069A1355013455E7069D8D
:10429000202C00D11DE73023361906E006AA013490
:1042A00017321355202C00D113E7A642F6D12E2346
:1042B0000CAA0134069293550EE7C046FFFFEFFFAC
:1042C000FFFFEF7F65CDCD4165CDCDC1C887001023
:1042D0000000E03F2C85001024850010348500107C
:1042E0000C23229A134257D0219B013B2193A342D6
:1042F00000D916E7202C00D11FE7229B5B0704D5CD
:104300002B23069A1355013417E7229B1B0700D471
:1043100013E72023069A135501340EE7FB0700D458
:10432000BBE60137B9E6219B042B00D84EE7554682
:104330004F46043CE4182A0043460135390020204A
:10434000D847AC42F7D141E70227229B55461F4090
:104350009B0726D006975F46234EEC1C2A00B078B8
:10436000434649460135B847013EAC42F6D1069F67
:10437000002F00D1F8E65746219AE31B9A4200D855
:10438000F2E6150022004346494620200134D84772
:10439000E31BAB42F6D3E7E6219BA34200D9C0E67C
:1043A000CBE6219B032BD5D9069754464F46033DB8
:1043B000ED1822004346013439002020D847A54299
:1043C000F7D1069FC6E7219B002B00D154E70B9B3A
:1043D000002B85D0219B013B21939C4200D2A0E67B
:1043E000202C00D04EE7A8E630850010F0B54546F9
:1043F000DE4657464E46E0B59BB0249C259D82463E
:1044000088469346994622002B0020002900FEF79B
:10441000BAFF002800D0C1E00122200029007C4B17
:104420005242FEF7ABFF002800D0B7E00122200087
:104430002900784B5242FEF78BFF002800D0ADE0F8
:104440000022002320002900FEF782FF002800D070
:10445000BBE108940995089809998023289ADB0004
:104460001A400F928022289E1201164032000E96AA
:10447000289E0F000A901E4200D0A4E00B000343C8
:1044800000D0CBE0002A00D012E23200063326939F
:10449000022313400C930223134200D00AE2279B0D
:1044A000042B00D215E200270426043B0E930022C1
:1044B000002320002900FEF74BFF002800D0C8E1B0
:1044C000554B289A134004930E9B0393269B02930B
:1044D000089B099C0093019441464B465A4650461E
:1044E000FFF74AFD02002020289B00250340594287
:1044F0004B415B421840531C089341464B464530A4
:10450000D047FB17FC185C40FB0F1F270A93731E54
:104510000E930AABFF1806E020000A21FEF76AFCA2
:104520000400202D08D00A212000FEF763FC01358D
:1045300030317955092CEFD8052306930E9B56464A
:104540000593002304930A3303930A9B4146029385
:1045500012AB009330004B46089A0195FFF718FC08
:104560000C9B002B28D05F46279BC41BA34223D95A
:1045700082461D003A194B46414620200134B0477F
:10458000A542F7D850465946279C421A01320023CB
:10459000944200D395E1013018180DE0289B009457
:1045A00001950493279B0393269B02934B465A46FF
:1045B00041465046FFF7E0FC1BB0F0BCBB46B2469C
:1045C000A946A046F0BD01432AD10E9B3200002B24
:1045D00000D15DE70027269B0026BB4200DD82E17B
:1045E0000022002320002900FEF7B2FE002800D0A0
:1045F0004BE1289B084A02961A408023DB001343B4
:104600000493279B0393089B099C00930194CDE797
:10461000FFFFEF7FFFFFEFFFFFF7FFFF062326936C
:10462000B24B7800400DC018FEF7BEFEB04AB14B49
:10463000FEF74BFEB04AB14BFEF720FE3F03B04BF6
:104640003F0B3B430C900D9100220A981900AD4B93
:10465000FEF70BFEAC4AAD4BFEF737FE02000B0037
:104660000C980D99FEF70AFEFEF7B6FE0700FEF75E
:104670009BFEA74AA74B0A900B91FEF726FE00224D
:10468000A54BFEF7FBFDFEF7A7FEA44A06000A981D
:104690000B99A34BFEF719FE0A900B913000FEF721
:1046A00083FEA04AA04BFEF710FE02000B000A9802
:1046B0000B99FEF7DAFD02000B000A900B91FEF752
:1046C00004FE0C900D910A980B9902000B00FEF766
:1046D000D5FD0022109011910C980D99934BFEF787
:1046E000D6FD0022924BFEF7C9FD02000B000C988C
:1046F0000D99FEF7CCFD00228E4BFEF7BFFD0200A8
:104700000B000C980D99FEF7C2FD0A9A0B9B0C90BA
:104710000D9180210020C905FEF7A7FD02000B00C6
:104720000C980D99FEF7AAFD02000B001098119944
:10473000FEF7ADFD0022724BFEF7A0FD7E4B00227E
:10474000F6183305FEF7C1FD02000B000A900B912D
:1047500008980999FEF7FCFD002808D00A980B99E3
:104760000022734BFEF793FD0A900B91013F0A99CB
:104770000B9A0B0011003A006332C62A12D80222AB
:104780002898042610400E9A0C90002A26D1279BC8
:10479000042B05D9002800D0A1E0279B043B0E93F1
:1047A000042642E00222289810400E9A0C90002A1B
:1047B00013D1279B052B00D889E0002800D084E086
:1047C000279B0526053B0E9332E080231B069C4663
:1047D000AC446346089409933DE605260B4300D19B
:1047E000F9E608980999554A554BFEF7BFFD002890
:1047F00008D0089809990022524BFEF7A9FD00281D
:1048000000D0E8E6269B002B34D00F9B002B31D044
:10481000269B013B2693279BB34204D90C9B002B7C
:1048200059D002230C9300230E93002F00D13EE6B3
:104830000A9A0B9B08980999FEF729FD0022089017
:104840000991002320002900FEF782FD002800D1F5
:1048500036E6089C099D289A80203B4B00061340B1
:10486000220004930E9B0393269B02932B18009225
:10487000019331E6279BB342D5D90C9B002B2AD05C
:1048800000230E9302330C93CFE7289B2E4A8020FF
:10489000089C099D1A408023DB00134322000493E7
:1048A000279B000603932B180092019302967DE646
:1048B000052695E600230E930233002704260C9369
:1048C000F5E54B1E1B191B1A65E602230C93052602
:1048D000AEE70423E7E5279B9B1B0E93A5E7022386
:1048E00004260C93A1E7DB1B5E1E79E601FCFFFFAB
:1048F000FB799F501344D33FB3C8608B288AC63FCF
:104900000000F03F0000F83F61436F63A787D23F8C
:1049100071A379094F930A400000E03F1655B5BBDB
:10492000B16B0240EF39FAFE422EE63F00002C4008
:104930000000244000001840FF0300002D431CEB42
:10494000E2361A3F80842E41FFF7FFFFF0B557464D
:10495000DE464E464546E0B5A3B01F002C9B92466E
:104960000C93C94AC94B8B460B901A60002900D1A1
:10497000BFE1002338789946002800D1C1E1C44B3B
:104980004C460993C34B0E935B460A9308E0220002
:1049900053460A990B9DA84701343878002876D0F1
:1049A00001372528F3D110239B46083B9946043B49
:1049B0009846033B002602259C463878791C030064
:1049C000203BDBB2102B03D8099A9B00D3589F469B
:1049D0000300303B092B36D900252A2800D1A7E057
:1049E00000230D932E283FD00300683BDBB2122B2F
:1049F0001BD80E9A9B00D3589F4663460F001E4358
:104A0000DBE70F002E43D8E743460F001E43D4E7F1
:104A10005B460F001E43D0E74B460F001E43CCE71A
:104A2000802378785B001E4301310F00672845D84A
:104A30002428ACD90300253BDBB2422BA7D89649EA
:104A40009B00CB589F460025AB005D196D002D18CB
:104A500008780F000300303B303D0131092BF3D9BA
:104A600000230D932E28BFD1302280205242904641
:104A7000C000064378780B0080444246092A00D8DB
:104A800051E12A2800D15EE10F000131ACE70A9B19
:104A9000A1469B46CA4503D801235B42534499462D
:104AA00053464A46594600200B9DA847200023B094
:104AB000F0BCBB46B246A946A046F0BD0300693B28
:104AC000DBB20F2B00D962E7012199408846734A77
:104AD00011408B46110042460A4200D013E10A2BD6
:104AE0002FD0072B00D052E70C9D01CD002800D11C
:104AF00034E121231E43B0461F260D9A12ABF6184F
:104B0000A14694465946340002E0000920290AD003
:104B10000F26064032003732092E00D8073A0131FD
:104B200062540F28F1D863464C468B460D9322E120
:104B30000C9B20CB002D52DB78780C930F000131B9
:104B40004EE70C9B0D9904CB90469B46002900D163
:104B500028E1434618784144002801D100F029FC9F
:104B60000D9A94460A0004E059780133002900D1D7
:104B700095E19A42F8D163460D934346D31A0F93B9
:104B8000730500D46CE10F9B0D9A934200D90F92EC
:104B900002231A0032400C92334200D191E20C936E
:104BA0000D9BB9461E1943461B1BA84622001F0039
:104BB0000B9D08E0541C53460A99A847385D00280D
:104BC00000D163E122009642F4D145464F463400BD
:104BD0000C9B002B00D097E15B460C93DDE6022294
:104BE000787816430F006D420C930131F8E678781F
:104BF0006C2800D159E180235B001E43013114E78A
:104C000080239B0078781E4301310EE7787868286E
:104C100000D150E1802301311E4306E7672800D10F
:104C2000C2E0472800D134E1452800D134E1072112
:104C30000C9B0D9A07338B4319000496039502923F
:104C40000CC90B98009201930C91220053460A99CB
:104C5000FFF7CCFB0400A0E6462800D1A8E007211E
:104C60000C9B0D9A07338B4319000496039502920F
:104C70000CC90B98009201930C91220053460A999B
:104C8000FFF77AF9040088E64D490010542100200E
:104C90002C86001070860010BC8600104190000029
:104CA0002200534625200A990B9DA847013474E63B
:104CB0000C9B04339B46631C9846B60700D4FFE068
:104CC0000C9B220018780A9953460B9EB047641932
:104CD000012D00D849E245460B9EB8460A9F2A009E
:104CE0005346013539002020B047A542F7D1474649
:104CF00072E7DB4B38780B9300239946002800D0ED
:104D00003DE60024C6E66F2855D000D8BCE210234B
:104D1000782800D19EE09E430A239C4600230F93EF
:104D20000A339B464DE000218A005218520001339D
:104D30001118187830390200303A092AF4D90D9147
:104D40001F00591C50E60C9BB87804CB0237D143A6
:104D5000C9170A400D920C93791C45E610233000C8
:104D6000984311331843802380463000DB001840FD
:104D70001E4200D1C0E643460693082305930D9BCF
:104D80002200049310230393002302935B460193B4
:104D90001AAB00930A9953460B98FEF7F9FF0C954E
:104DA0000400FAE50139D4E680231B011E433EE7E7
:104DB00020231E4353E708239C4600230F93083308
:104DC0009B4680233000DB0018401E4200D11AE1D0
:104DD0000D233100994380230A009B001A4091461D
:104DE000194200D0C3E180230A005B001A409046BC
:104DF0000C9A04320F92194200D08FE24B0600D574
:104E000097E10B0600D4E5E20C9B1B8899464B46C4
:104E1000002B00D005E210339943002800D100E2B6
:104E2000002398460D9B069104935B460393002351
:104E3000059502934346D9E0582808D0622878D1D6
:104E400002239C4600230F9302339B46B9E720239D
:104E50001E43103B9C4600230F9310339B46B0E744
:104E600002231A0032400C92334200D105E20C9327
:104E70004346B9460B9E0A9FA8461D1B2200534677
:104E800039000134B047285D0028F7D145464F4628
:104E90009EE680231B011E4320231E43C7E6624675
:104EA0000D9242469B1A0F936AE6C0239B00B87886
:104EB0001E43F91CB9E5C023B8781E43F91CB4E5BC
:104EC000012D00D84AE1631E9946A9444B4652463B
:104ED0002600A146BA461C001700A8460B9D3200CA
:104EE0003B00013620200A99A847A642F7D13B0093
:104EF00057469A464C460C9B320018780A995346FE
:104F00000B9D4444A84767E6A0460F9B9D4200D8EE
:104F100062E62C190B9E4546B8460A9FE41A2A0001
:104F20005346013539002020B047A542F7D1474606
:104F300052E680233200DB001A4090461E4200D128
:104F4000F3E011218E43B4469846802362469B00CD
:104F50001A40934662461A4259D180235B001A4098
:104F600091460C9A04320F9262461A4200D0A0E198
:104F700063465B0600D5D4E063461B0600D412E20C
:104F80000C9B00229B5ED8171918414089B2DA0F9A
:104F90000C92002B00D187E188461F2612ABBB463E
:104FA0001495F71845464E46E046A14606E028000F
:104FB0000A21FDF71FFF0500202E08D00A21280036
:104FC000FDF718FF01363031B955092DEFD84C46A1
:104FD000C446B1465F46149D634606930D9B0595F6
:104FE00004930A2303930C9B02934B4601931AAB41
:104FF000220000930A9953460B98FEF7C9FE0F9BB7
:1050000004000C93C9E40C2331009943E3E6082221
:10501000072191460C9B07338B4399444A460ACBA0
:1050200008000C92DA0F9346184300D085E0002365
:1050300099464346002B2FD1002200231092119352
:1050400000231F26994612ABF6185B461495BB4603
:10505000E04637000F934E46A146109C119D05E097
:10506000E53C001004000D00202E0CD00A22002385
:1050700020002900FDF7FCFE01363032BA55002D24
:10508000F0D1092CEED80F9B109411955F464C4639
:10509000C446B1469B46149D634606930D9B0595F9
:1050A00004930A2303935B4602934B4601931AAB86
:1050B000220000930A9953460B98FEF769FE0400FC
:1050C0006BE40F9B9D4200D896E18023DB000C939C
:1050D0000F9B2E19F61A43460F930D9BA84699462F
:1050E0005346BA461F000B9D22003B00013420208E
:1050F0000A99A847B442F7D10F9B454698464B46BC
:105100000D933B0057469A4643461878002800D135
:1051100062E56B1C0F930C9B002B00D1A8E60023CB
:105120003DE50C9B1B78190031E710239E43B446E4
:105130000BE70C9B1B78994669E6DA1712921392DB
:105140004A401092129813990A005A401192109AEC
:10515000119B121A8B411092119371E70C9B220044
:1051600018780A9953460B9CA047444634E5082218
:10517000072690460C9B0733B343984442460C9253
:105180001A685B68149208931300089A134305D1B8
:105190001033994300239846002838D161208B06AC
:1051A00000D5412000231F2698465A4612ABF61818
:1051B000030018920F9A0A3BB14616951794199757
:1051C0004446664690469B46149F089D159103E011
:1051D00007000D00202C13D03200002338002900D6
:1051E000FDF746FE5B46D2B2D318092A01D8130058
:1051F00030334A4601341355A845E9D1BE42E7D9B8
:10520000189BA0469B461599169D179C199F0D9BB0
:10521000069104935B46039300230595029343464E
:1052200044E761208B0600D541201F2612ABF218FF
:1052300003000A3B0C934B464646A146A8461C0079
:105240005D461491BB46170002E00400202E0DD0ED
:1052500029002000FDF7CEFD0C9BCB18092901D8B1
:105260000B0030330136BB55AC42EED25F464C46A4
:10527000AB4614994546B046D4E50F9B9D4200D9F4
:1052800026E701330F93F3E5102332009A43944647
:10529000692800D0A2E080233200DB001A4090464B
:1052A0001E4200D151E64CE64346002B00D093E667
:1052B00073E60C9B1B68DA0F002B70D0D9175B18B4
:1052C0004B4098461F2612ABF618A14614955C4633
:1052D0004546BB46E04637000C9206E028000A210E
:1052E000FDF788FD0500202C08D00A212800FDF7D5
:1052F00081FD013430313955092DEFD85F46C44660
:10530000A3464C46149D0C9A634606930D9B059547
:1053100004930A23029203935B4667E60C9B1B6887
:105320009846002B03D11033994300282DD16120DA
:105330008B0600D541201F2612ABF61803000A3B4E
:105340004A460C93149143463100A846A1465E4656
:105350001400BB461D000F0002E00500202C0DD0FC
:1053600031002800FDF746FD0C9BCB18092901D818
:105370000B00303301343B55B542EED223005F467B
:105380004C464546B346994614990D9B06910493A5
:105390005B4603930023059502934B4626E643465E
:1053A000002BB1D18EE70C9B1B68D8171918414010
:1053B000EDE580233200DB001A400F921E420FD031
:1053C0000230020032400F92304219D00023A04632
:1053D0000F939AE50C9B1B68994618E516009BE411
:1053E00002231A0032400C92334200D08CE5002D8B
:1053F00000D06DE6FFF7F0FB01330F93FFF7D0FB12
:105400000C93F4E784460CB400B585B006AB0A00F3
:1054100002CB0548039300930B006146FFF796FA11
:1054200005B008BC02B01847DD3C001010B5094AB1
:105430000300146884B0002C08D0012200910648B3
:10544000524203A9A047012004B010BD00F0FCF9AE
:105450000020F9E754210020693F001000BEFDE75D
:1054600010B5FFF7FBFFC04670B5FDF775FB074DA4
:10547000074EB54209D20024013E761BB60801361C
:1054800008CD01349847B442FAD170BDA48300100E
:10549000AC830010030010B5080011001B6898478A
:1054A00010BDC046F8B5437D07000D001600002B67
:1054B00038D0002A1ADD0B780A2B18D00020012ED4
:1054C00009D0012421006B5C01340A2B1AD0B442AC
:1054D000F8D1864203DD311A3B6828189847AD1988
:1054E000013D2B780D3B5A4253413B75F8BD037D7E
:1054F000002BE3D102210E483B689847012EEED0E5
:105500000120DEE76B1E5B5C0D2BE0D0884203DAE6
:10551000091A3B6828189847054802213B689847B4
:105520002000D4E70368110028009847DEE7C04652
:1055300018880010F0B54646D6464F46C0B582B032
:1055400090461C0006000D00FCF7C4FF00232F4A04
:1055500012184B41002B02DA01222D4B52422D49E9
:1055600008008A4602F0E0FE81466B1C03D1300041
:1055700002F058FE0500002C27D0274F274B1C684F
:10558000002C18D04346002B21D1254B984602E031
:105590002469002C0FD02368002BF9D043461B68E8
:1055A000002B01D09C42F3D120002A003100B847E3
:1055B0002469002CEFD14B46002B23D1280002B0E8
:1055C000E0BCBA46B146A846F0BD164FD6E7144B2C
:1055D000984602E02469002CEDD02368002BF9D016
:1055E00043461B68002B01D0A342F3D12A003100AF
:1055F0002000B8476B460A222000DA71D91D093A0B
:10560000B847E7E7504602F057FED7E740420F00A1
:10561000FFFFFF7FF8110020A5540010801C002020
:10562000881C002095540010F0B5CE46474680B542
:1056300083B06B460600DD1D2870FCF74BFF00238E
:10564000194A12184B41002B02DA0122174B524221
:1056500017490800894602F067FE164B80461C6811
:10566000002C14D0144F02E02469002C0FD02368C2
:10567000002BF9D03B68002B01D09C42F4D12000D4
:1056800001222900FFF706FF2469002CEFD14346D1
:10569000002B05D1300003B0C0BCB946B046F0BD08
:1056A000484602F009FEF5E740420F00FFFFFF7F8A
:1056B000F8110020801C0020881C00200A4A136872
:1056C000002B05D10CE01A001B691032002B07D00B
:1056D0008342F8D1002902D118691060196170471E
:1056E0000029FCD01060FAE7801C0020084B10B5A0
:1056F0001C68002C06D06368002B04D098472469EE
:10570000002CF8D110BD2469002CF4D1FAE7C04672
:10571000801C002010B500F0C7FA10BDF0B5CE46D1
:105720004746040080B583B0FCF7D4FE260000276E
:1057300036184F41002F02DA01261A4F76421A4BD3
:105740001A4D994601AB98464B461C68002C03D174
:1057500016E02469002C13D02B68002B01D09C424A
:10576000F7D1A368002BF4D00121404698470028C8
:10577000EFDD4346187803B0C0BCB946B046F0BD73
:105780000B4B5A6A974207D89B6AB34202D3022056
:105790004042F0E79742FAD101200021FCF7A4FE35
:1057A000D2E7C046FFFFFF7F801C0020881C00203E
:1057B00000400540F0B5CE46474680B583B06B4605
:1057C0000600DD1D2870FCF785FE0023194A12181B
:1057D0004B41002B02DA0122174B524217490800B5
:1057E000894602F0A1FD164B80461C68002C14D09F
:1057F000144F02E02469002C0FD02368002BF9D04D
:105800003B68002B01D09C42F4D1200001222900EA
:10581000FFF748FE2469002CEFD14346002B05D149
:10582000300003B0C0BCB946B046F0BD484602F0F7
:1058300043FDF5E740420F00FFFFFF7FF811002016
:10584000801C0020881C002070B5040002F0EAFCD7
:1058500001230100050001222000FFF76BFE084B29
:105860001C68002C06D06368002B05D0984724697B
:10587000002CF8D1280070BD2469002CF3D1F9E781
:10588000801C00207047C0460022014B1A707047F0
:10589000C52100204B790020FF2B0BD18B79002BE9
:1058A00008D1CB79012B05D1082A03D9024B8A787C
:1058B00009301A707047C046C5210020012070478A
:1058C00010B5012913D112495379107909781B02B7
:1058D00003430020994200D010BD5378012B08D01B
:1058E000022BF9D1642200210020FDF77FF801206E
:1058F000F2E7D37891781B021943480ADB0501D4FB
:10590000012040427F238A05D20F1940FDF7F6F8A7
:10591000C521002000487047E48800109446012308
:1059200010B501290AD152780023012A06D1624616
:105930001179527912020A43072A01D0180010BDCA
:10594000A6336146024A01F063FA0300F6E7C04657
:105950003C88001001230370004870471C88001029
:105960004B780A781B0213438A7810B512041A4345
:10597000CB781B0613439622D200934200D010BD71
:105980000022012011004042FDF7B8F8024B1860D8
:10599000024B19607047C046201C0020241C0020C8
:1059A00010B5024B1878FBF733FF10BDC62100205D
:1059B000154B70B51A68002A22D0EFF3108172B629
:1059C00010680028FCD0BFF35F8F00200F4A596099
:1059D00010701B68BFF35F8F186081F3108800247C
:1059E00000250B4E3078FBF707FF002804D1002478
:1059F00000252900200070BD3078FBF709FFF8E78B
:105A0000FA240025A400ECE778210020C72100201B
:105A1000C621002070B5050000200E0001F010FB2B
:105A2000002834D0002001F021FB00282FD0FCF703
:105A300051FD0023174A12184B41002B16DB164C60
:105A4000200002F071FC002821D0002001F0F8FABB
:105A500000280FD101200021404200F00FFD032556
:105A60006D42200002F028FC280070BD01220B4B83
:105A70005242E4E7002001F0F9FA0028EAD02900B8
:105A80003200002001F0FCFA051EEAD1E7E7032509
:105A90006D42E9E740420F00A0210020FFFFFF7F99
:105AA00010B5FCF717FD00230D4A12184B41002BCF
:105AB00002DA01220B4B52420B4802F035FC00285F
:105AC0000CD001200021404200F0D8FC002001F061
:105AD0001BFB0028F5D1044802F0EEFB10BDC046C8
